{
  "contractName": "Marketplace",
  "abi": [
    {
      "constant": true,
      "inputs": [],
      "name": "workCount",
      "outputs": [
        {
          "name": "",
          "type": "uint256"
        }
      ],
      "payable": false,
      "stateMutability": "view",
      "type": "function",
      "signature": "0x3343fa42"
    },
    {
      "constant": true,
      "inputs": [
        {
          "name": "",
          "type": "uint256"
        }
      ],
      "name": "products",
      "outputs": [
        {
          "name": "id",
          "type": "uint256"
        },
        {
          "name": "idWork",
          "type": "uint256"
        },
        {
          "name": "price",
          "type": "uint256"
        },
        {
          "name": "owner",
          "type": "address"
        },
        {
          "name": "purchased",
          "type": "bool"
        }
      ],
      "payable": false,
      "stateMutability": "view",
      "type": "function",
      "signature": "0x7acc0b20"
    },
    {
      "constant": true,
      "inputs": [],
      "name": "logCount",
      "outputs": [
        {
          "name": "",
          "type": "uint256"
        }
      ],
      "payable": false,
      "stateMutability": "view",
      "type": "function",
      "signature": "0xa503898f"
    },
    {
      "constant": true,
      "inputs": [
        {
          "name": "",
          "type": "uint256"
        }
      ],
      "name": "works",
      "outputs": [
        {
          "name": "id",
          "type": "uint256"
        },
        {
          "name": "title",
          "type": "string"
        },
        {
          "name": "yearCreate",
          "type": "uint256"
        },
        {
          "name": "describe",
          "type": "string"
        },
        {
          "name": "category",
          "type": "string"
        },
        {
          "name": "nameCreator",
          "type": "string"
        },
        {
          "name": "status",
          "type": "uint256"
        },
        {
          "name": "userId",
          "type": "uint256"
        }
      ],
      "payable": false,
      "stateMutability": "view",
      "type": "function",
      "signature": "0xc66e1dd5"
    },
    {
      "constant": true,
      "inputs": [
        {
          "name": "",
          "type": "uint256"
        }
      ],
      "name": "workHashes",
      "outputs": [
        {
          "name": "",
          "type": "bytes32"
        }
      ],
      "payable": false,
      "stateMutability": "view",
      "type": "function",
      "signature": "0xdc5df947"
    },
    {
      "constant": true,
      "inputs": [],
      "name": "productCount",
      "outputs": [
        {
          "name": "",
          "type": "uint256"
        }
      ],
      "payable": false,
      "stateMutability": "view",
      "type": "function",
      "signature": "0xe0f6ef87"
    },
    {
      "constant": true,
      "inputs": [
        {
          "name": "",
          "type": "uint256"
        }
      ],
      "name": "logs",
      "outputs": [
        {
          "name": "id",
          "type": "uint256"
        },
        {
          "name": "timestamp",
          "type": "uint256"
        },
        {
          "name": "content",
          "type": "string"
        },
        {
          "name": "sender",
          "type": "string"
        },
        {
          "name": "workId",
          "type": "uint256"
        }
      ],
      "payable": false,
      "stateMutability": "view",
      "type": "function",
      "signature": "0xe79899bd"
    },
    {
      "anonymous": false,
      "inputs": [
        {
          "indexed": true,
          "name": "id",
          "type": "uint256"
        },
        {
          "indexed": false,
          "name": "title",
          "type": "string"
        },
        {
          "indexed": false,
          "name": "yearCreate",
          "type": "uint256"
        },
        {
          "indexed": false,
          "name": "describe",
          "type": "string"
        },
        {
          "indexed": false,
          "name": "category",
          "type": "string"
        },
        {
          "indexed": false,
          "name": "nameCreator",
          "type": "string"
        },
        {
          "indexed": false,
          "name": "status",
          "type": "uint256"
        },
        {
          "indexed": false,
          "name": "userId",
          "type": "uint256"
        }
      ],
      "name": "WorkCreated",
      "type": "event",
      "signature": "0x2f4e79a6c3b1d7d0101ce4a845b81f553eb1e6b1c17ced51a2bf9b110feff848"
    },
    {
      "anonymous": false,
      "inputs": [
        {
          "indexed": true,
          "name": "id",
          "type": "uint256"
        },
        {
          "indexed": false,
          "name": "title",
          "type": "string"
        },
        {
          "indexed": false,
          "name": "yearCreate",
          "type": "uint256"
        },
        {
          "indexed": false,
          "name": "describe",
          "type": "string"
        },
        {
          "indexed": false,
          "name": "category",
          "type": "string"
        },
        {
          "indexed": false,
          "name": "nameCreator",
          "type": "string"
        },
        {
          "indexed": false,
          "name": "status",
          "type": "uint256"
        },
        {
          "indexed": false,
          "name": "userId",
          "type": "uint256"
        }
      ],
      "name": "WorkUpdated",
      "type": "event",
      "signature": "0xd9a1ff3b9c6197fa27005c7c65b379e56e1a399baf0ccfe737e056f838ac1732"
    },
    {
      "anonymous": false,
      "inputs": [
        {
          "indexed": true,
          "name": "id",
          "type": "uint256"
        },
        {
          "indexed": true,
          "name": "timestamp",
          "type": "uint256"
        },
        {
          "indexed": false,
          "name": "content",
          "type": "string"
        },
        {
          "indexed": false,
          "name": "sender",
          "type": "string"
        },
        {
          "indexed": false,
          "name": "workId",
          "type": "uint256"
        }
      ],
      "name": "LogAdded",
      "type": "event",
      "signature": "0x37a0e0bd100c60a414bfe0d5a41c3e720088bbb04bf588c5b5e814b743d67ac0"
    },
    {
      "anonymous": false,
      "inputs": [
        {
          "indexed": false,
          "name": "id",
          "type": "uint256"
        },
        {
          "indexed": false,
          "name": "idWork",
          "type": "uint256"
        },
        {
          "indexed": false,
          "name": "price",
          "type": "uint256"
        },
        {
          "indexed": false,
          "name": "owner",
          "type": "address"
        },
        {
          "indexed": false,
          "name": "purchased",
          "type": "bool"
        }
      ],
      "name": "ProductCreated",
      "type": "event",
      "signature": "0xaf5a0a914873638c0bd1d92c23d9929d4cc4b18b9dcab1ba576a3d21960f7a18"
    },
    {
      "anonymous": false,
      "inputs": [
        {
          "indexed": false,
          "name": "id",
          "type": "uint256"
        },
        {
          "indexed": false,
          "name": "idWork",
          "type": "uint256"
        },
        {
          "indexed": false,
          "name": "price",
          "type": "uint256"
        },
        {
          "indexed": false,
          "name": "owner",
          "type": "address"
        },
        {
          "indexed": false,
          "name": "purchased",
          "type": "bool"
        }
      ],
      "name": "ProductPurchased",
      "type": "event",
      "signature": "0xadc6a3e5f30f0556b5dd40b296b9c1c33093865ce32cd2d151082a6eebda76e1"
    },
    {
      "constant": false,
      "inputs": [
        {
          "name": "_title",
          "type": "string"
        },
        {
          "name": "_yearCreate",
          "type": "uint256"
        },
        {
          "name": "_describe",
          "type": "string"
        },
        {
          "name": "_category",
          "type": "string"
        },
        {
          "name": "_nameCreator",
          "type": "string"
        },
        {
          "name": "_status",
          "type": "uint256"
        },
        {
          "name": "_userId",
          "type": "uint256"
        }
      ],
      "name": "createWork",
      "outputs": [],
      "payable": false,
      "stateMutability": "nonpayable",
      "type": "function",
      "signature": "0x32e66dff"
    },
    {
      "constant": false,
      "inputs": [
        {
          "name": "_id",
          "type": "uint256"
        },
        {
          "name": "_title",
          "type": "string"
        },
        {
          "name": "_yearCreate",
          "type": "uint256"
        },
        {
          "name": "_describe",
          "type": "string"
        },
        {
          "name": "_category",
          "type": "string"
        },
        {
          "name": "_nameCreator",
          "type": "string"
        },
        {
          "name": "_status",
          "type": "uint256"
        },
        {
          "name": "_userId",
          "type": "uint256"
        }
      ],
      "name": "updateWork",
      "outputs": [],
      "payable": false,
      "stateMutability": "nonpayable",
      "type": "function",
      "signature": "0xb3cd4e1e"
    },
    {
      "constant": false,
      "inputs": [
        {
          "name": "_content",
          "type": "string"
        },
        {
          "name": "_sender",
          "type": "string"
        },
        {
          "name": "_workId",
          "type": "uint256"
        }
      ],
      "name": "_addLog",
      "outputs": [],
      "payable": false,
      "stateMutability": "nonpayable",
      "type": "function",
      "signature": "0x4a6e1c15"
    },
    {
      "constant": true,
      "inputs": [],
      "name": "getLogsCount",
      "outputs": [
        {
          "name": "",
          "type": "uint256"
        }
      ],
      "payable": false,
      "stateMutability": "view",
      "type": "function",
      "signature": "0xcc9e300f"
    },
    {
      "constant": true,
      "inputs": [
        {
          "name": "_index",
          "type": "uint256"
        }
      ],
      "name": "getLog",
      "outputs": [
        {
          "name": "id",
          "type": "uint256"
        },
        {
          "name": "timestamp",
          "type": "uint256"
        },
        {
          "name": "content",
          "type": "string"
        },
        {
          "name": "sender",
          "type": "string"
        },
        {
          "name": "workId",
          "type": "uint256"
        }
      ],
      "payable": false,
      "stateMutability": "view",
      "type": "function",
      "signature": "0x3206b2c6"
    },
    {
      "constant": true,
      "inputs": [],
      "name": "getWorkCount",
      "outputs": [
        {
          "name": "",
          "type": "uint256"
        }
      ],
      "payable": false,
      "stateMutability": "view",
      "type": "function",
      "signature": "0x9b97cee5"
    },
    {
      "constant": true,
      "inputs": [
        {
          "name": "_id",
          "type": "uint256"
        }
      ],
      "name": "getWork",
      "outputs": [
        {
          "name": "",
          "type": "uint256"
        },
        {
          "name": "",
          "type": "string"
        },
        {
          "name": "",
          "type": "uint256"
        },
        {
          "name": "",
          "type": "string"
        },
        {
          "name": "",
          "type": "string"
        },
        {
          "name": "",
          "type": "string"
        },
        {
          "name": "",
          "type": "bytes32"
        },
        {
          "name": "",
          "type": "uint256"
        }
      ],
      "payable": false,
      "stateMutability": "view",
      "type": "function",
      "signature": "0x573d21f3"
    },
    {
      "constant": true,
      "inputs": [
        {
          "name": "_title",
          "type": "string"
        },
        {
          "name": "_describe",
          "type": "string"
        },
        {
          "name": "_category",
          "type": "string"
        },
        {
          "name": "_yearCreate",
          "type": "uint256"
        }
      ],
      "name": "_calculateHash",
      "outputs": [
        {
          "name": "",
          "type": "bytes32"
        }
      ],
      "payable": false,
      "stateMutability": "pure",
      "type": "function",
      "signature": "0x29c32ffa"
    },
    {
      "constant": true,
      "inputs": [
        {
          "name": "_id",
          "type": "uint256"
        }
      ],
      "name": "getWorkHash",
      "outputs": [
        {
          "name": "",
          "type": "bytes32"
        }
      ],
      "payable": false,
      "stateMutability": "view",
      "type": "function",
      "signature": "0x83229e99"
    },
    {
      "constant": true,
      "inputs": [
        {
          "name": "_userId",
          "type": "uint256"
        }
      ],
      "name": "getWorksByUserId",
      "outputs": [
        {
          "components": [
            {
              "name": "id",
              "type": "uint256"
            },
            {
              "name": "title",
              "type": "string"
            },
            {
              "name": "yearCreate",
              "type": "uint256"
            },
            {
              "name": "describe",
              "type": "string"
            },
            {
              "name": "category",
              "type": "string"
            },
            {
              "name": "nameCreator",
              "type": "string"
            },
            {
              "name": "status",
              "type": "uint256"
            },
            {
              "name": "userId",
              "type": "uint256"
            }
          ],
          "name": "",
          "type": "tuple[]"
        }
      ],
      "payable": false,
      "stateMutability": "view",
      "type": "function",
      "signature": "0x93ef4d48"
    },
    {
      "constant": false,
      "inputs": [
        {
          "name": "_idWork",
          "type": "uint256"
        },
        {
          "name": "_price",
          "type": "uint256"
        }
      ],
      "name": "createProduct",
      "outputs": [],
      "payable": false,
      "stateMutability": "nonpayable",
      "type": "function",
      "signature": "0xb1e3457d"
    },
    {
      "constant": false,
      "inputs": [
        {
          "name": "_id",
          "type": "uint256"
        },
        {
          "name": "_userId",
          "type": "uint256"
        },
        {
          "name": "_nameCreator",
          "type": "string"
        }
      ],
      "name": "purchaseProduct",
      "outputs": [],
      "payable": true,
      "stateMutability": "payable",
      "type": "function",
      "signature": "0xeb64d579"
    },
    {
      "constant": true,
      "inputs": [
        {
          "name": "_idWork",
          "type": "uint256"
        }
      ],
      "name": "hasProductWithIdWorkAndNotPurchased",
      "outputs": [
        {
          "name": "",
          "type": "bool"
        }
      ],
      "payable": false,
      "stateMutability": "view",
      "type": "function",
      "signature": "0xdae21a08"
    },
    {
      "constant": false,
      "inputs": [
        {
          "name": "_idWork",
          "type": "uint256"
        }
      ],
      "name": "markProductsAsPurchased",
      "outputs": [],
      "payable": false,
      "stateMutability": "nonpayable",
      "type": "function",
      "signature": "0x9177ec5a"
    }
  ],
  "bytecode": "0x6080604052600060055534801561001557600080fd5b5061423e806100256000396000f3fe60806040526004361061011d576000357c0100000000000000000000000000000000000000000000000000000000900463ffffffff16806329c32ffa146101225780633206b2c61461015f57806332e66dff146101a05780633343fa42146101c95780634a6e1c15146101f4578063573d21f31461021d5780637acc0b201461026157806383229e99146102a25780639177ec5a146102df57806393ef4d48146103085780639b97cee514610345578063a503898f14610370578063b1e3457d1461039b578063b3cd4e1e146103c4578063c66e1dd5146103ed578063cc9e300f14610431578063dae21a081461045c578063dc5df94714610499578063e0f6ef87146104d6578063e79899bd14610501578063eb64d57914610542575b600080fd5b34801561012e57600080fd5b50610149600480360361014491908101906136a6565b61055e565b6040516101569190613d32565b60405180910390f35b34801561016b57600080fd5b50610186600480360361018191908101906138ce565b610690565b604051610197959493929190613fac565b60405180910390f35b3480156101ac57600080fd5b506101c760048036036101c291908101906137d0565b6108a9565b005b3480156101d557600080fd5b506101de610d06565b6040516101eb9190613e5d565b60405180910390f35b34801561020057600080fd5b5061021b60048036036102169190810190613751565b610d0c565b005b34801561022957600080fd5b50610244600480360361023f91908101906138ce565b610e2c565b604051610258989796959493929190613e78565b60405180910390f35b34801561026d57600080fd5b50610288600480360361028391908101906138ce565b611182565b60405161029995949392919061406e565b60405180910390f35b3480156102ae57600080fd5b506102c960048036036102c491908101906138ce565b6111e5565b6040516102d69190613d32565b60405180910390f35b3480156102eb57600080fd5b50610306600480360361030191908101906138ce565b61124a565b005b34801561031457600080fd5b5061032f600480360361032a91908101906138ce565b611373565b60405161033c9190613cf5565b60405180910390f35b34801561035157600080fd5b5061035a61175c565b6040516103679190613e5d565b60405180910390f35b34801561037c57600080fd5b50610385611766565b6040516103929190613e5d565b60405180910390f35b3480156103a757600080fd5b506103c260048036036103bd9190810190613a09565b61176c565b005b3480156103d057600080fd5b506103eb60048036036103e691908101906138f7565b6118b3565b005b3480156103f957600080fd5b50610414600480360361040f91908101906138ce565b612996565b604051610428989796959493929190613f12565b60405180910390f35b34801561043d57600080fd5b50610446612c4d565b6040516104539190613e5d565b60405180910390f35b34801561046857600080fd5b50610483600480360361047e91908101906138ce565b612c57565b6040516104909190613d17565b60405180910390f35b3480156104a557600080fd5b506104c060048036036104bb91908101906138ce565b612cd7565b6040516104cd9190613d32565b60405180910390f35b3480156104e257600080fd5b506104eb612cef565b6040516104f89190613e5d565b60405180910390f35b34801561050d57600080fd5b50610528600480360361052391908101906138ce565b612cf5565b60405161053995949392919061400d565b60405180910390f35b61055c60048036036105579190810190613a45565b612e6a565b005b6000848484846040516020018085805190602001908083835b60208310151561059c5780518252602082019150602081019050602083039250610577565b6001836020036101000a03801982511681845116808217855250505050505090500184805190602001908083835b6020831015156105ef57805182526020820191506020810190506020830392506105ca565b6001836020036101000a03801982511681845116808217855250505050505090500183805190602001908083835b602083101515610642578051825260208201915060208101905060208303925061061d565b6001836020036101000a038019825116818451168082178552505050505050905001828152602001945050505050604051602081830303815290604052805190602001209050949350505050565b6000806060806000600380549050861015156106e1576040517f08c379a00000000000000000000000000000000000000000000000000000000081526004016106d890613e1d565b60405180910390fd5b6106e9613413565b6003878154811015156106f857fe5b906000526020600020906005020160a060405190810160405290816000820154815260200160018201548152602001600282018054600181600116156101000203166002900480601f0160208091040260200160405190810160405280929190818152602001828054600181600116156101000203166002900480156107bf5780601f10610794576101008083540402835291602001916107bf565b820191906000526020600020905b8154815290600101906020018083116107a257829003601f168201915b50505050508152602001600382018054600181600116156101000203166002900480601f0160208091040260200160405190810160405280929190818152602001828054600181600116156101000203166002900480156108615780601f1061083657610100808354040283529160200191610861565b820191906000526020600020905b81548152906001019060200180831161084457829003601f168201915b50505050508152602001600482015481525050905080600001518160200151826040015183606001518460800151829250819150955095509550955095505091939590929450565b60016101006040519081016040528060025481526020018981526020018881526020018781526020018681526020018581526020018481526020018381525090806001815401808255809150509060018203906000526020600020906008020160009091929091909150600082015181600001556020820151816001019080519060200190610939929190613443565b50604082015181600201556060820151816003019080519060200190610960929190613443565b50608082015181600401908051906020019061097d929190613443565b5060a082015181600501908051906020019061099a929190613443565b5060c0820151816006015560e0820151816007015550505060006109c08887878a61055e565b9050806000806002548152602001908152602001600020819055506002547f2f4e79a6c3b1d7d0101ce4a845b81f553eb1e6b1c17ced51a2bf9b110feff84889898989898989604051610a199796959493929190613d92565b60405180910390a2606088610a2d896132ba565b88888860405160200180807f54c3a163207068e1baa96d20c491c6b0e1bba3632074e1baa16f2076e1bb9b6981526020017f2074e1bbb16120c491e1bb813a20000000000000000000000000000000000000815250602e0186805190602001908083835b602083101515610ab65780518252602082019150602081019050602083039250610a91565b6001836020036101000a038019825116818451168082178552505050505050905001807f2c206ec4836d2073c3a16e672074c3a1633a200000000000000000000000000081525060130185805190602001908083835b602083101515610b315780518252602082019150602081019050602083039250610b0c565b6001836020036101000a038019825116818451168082178552505050505050905001807f2c206dc3b42074e1baa33a200000000000000000000000000000000000000000815250600c0184805190602001908083835b602083101515610bac5780518252602082019150602081019050602083039250610b87565b6001836020036101000a038019825116818451168082178552505050505050905001807f2c207468e1bb83206c6fe1baa1693a200000000000000000000000000000000081525060100183805190602001908083835b602083101515610c275780518252602082019150602081019050602083039250610c02565b6001836020036101000a038019825116818451168082178552505050505050905001807f2c2074c3aa6e2074c3a163206769e1baa33a200000000000000000000000000081525060130182805190602001908083835b602083101515610ca25780518252602082019150602081019050602083039250610c7d565b6001836020036101000a038019825116818451168082178552505050505050905001955050505050506040516020818303038152906040529050610ce98186600254610d0c565b600260008154809291906001019190505550505050505050505050565b60025481565b6000429050610d19613413565b60a06040519081016040528060016004540181526020018381526020018681526020018581526020018481525090506003819080600181540180825580915050906001820390600052602060002090600502016000909192909190915060008201518160000155602082015181600101556040820151816002019080519060200190610da6929190613443565b506060820151816003019080519060200190610dc3929190613443565b5060808201518160040155505050816001600454017f37a0e0bd100c60a414bfe0d5a41c3e720088bbb04bf588c5b5e814b743d67ac0878787604051610e0b93929190613d4d565b60405180910390a36004600081548092919060010191905055505050505050565b6000606060006060806060600080610e426134c3565b60018a815481101515610e5157fe5b9060005260206000209060080201610100604051908101604052908160008201548152602001600182018054600181600116156101000203166002900480601f016020809104026020016040519081016040528092919081815260200182805460018160011615610100020316600290048015610f0f5780601f10610ee457610100808354040283529160200191610f0f565b820191906000526020600020905b815481529060010190602001808311610ef257829003601f168201915b5050505050815260200160028201548152602001600382018054600181600116156101000203166002900480601f016020809104026020016040519081016040528092919081815260200182805460018160011615610100020316600290048015610fbb5780601f10610f9057610100808354040283529160200191610fbb565b820191906000526020600020905b815481529060010190602001808311610f9e57829003601f168201915b50505050508152602001600482018054600181600116156101000203166002900480601f01602080910402602001604051908101604052809291908181526020018280546001816001161561010002031660029004801561105d5780601f106110325761010080835404028352916020019161105d565b820191906000526020600020905b81548152906001019060200180831161104057829003601f168201915b50505050508152602001600582018054600181600116156101000203166002900480601f0160208091040260200160405190810160405280929190818152602001828054600181600116156101000203166002900480156110ff5780601f106110d4576101008083540402835291602001916110ff565b820191906000526020600020905b8154815290600101906020018083116110e257829003601f168201915b5050505050815260200160068201548152602001600782015481525050905060008060008c8152602001908152602001600020549050816000015182602001518360400151846060015185608001518660a00151868860e00151869650849450839350829250995099509950995099509950995099505050919395975091939597565b60066020528060005260406000206000915090508060000154908060010154908060020154908060030160009054906101000a900473ffffffffffffffffffffffffffffffffffffffff16908060030160149054906101000a900460ff16905085565b600060018054905082101515611230576040517f08c379a000000000000000000000000000000000000000000000000000000000815260040161122790613e3d565b60405180910390fd5b600080838152602001908152602001600020549050919050565b6000600190505b6005548111151561136f5781600660008381526020019081526020016000206001015414156113625760016006600083815260200190815260200160002060030160146101000a81548160ff0219169083151502179055507fadc6a3e5f30f0556b5dd40b296b9c1c33093865ce32cd2d151082a6eebda76e16006600083815260200190815260200160002060000154600660008481526020019081526020016000206001015460066000858152602001908152602001600020600201546006600086815260200190815260200160002060030160009054906101000a900473ffffffffffffffffffffffffffffffffffffffff16600160405161135995949392919061406e565b60405180910390a15b8080600101915050611251565b5050565b6060600080905060008090505b6002548110156113c8578360018281548110151561139a57fe5b90600052602060002090600802016007015414156113bb5781806001019250505b8080600101915050611380565b5060608160405190808252806020026020018201604052801561140557816020015b6113f2613509565b8152602001906001900390816113ea5790505b509050600080905060008090505b600254811015611750578560018281548110151561142d57fe5b90600052602060002090600802016007015414156117435760018181548110151561145457fe5b9060005260206000209060080201610100604051908101604052908160008201548152602001600182018054600181600116156101000203166002900480601f0160208091040260200160405190810160405280929190818152602001828054600181600116156101000203166002900480156115125780601f106114e757610100808354040283529160200191611512565b820191906000526020600020905b8154815290600101906020018083116114f557829003601f168201915b5050505050815260200160028201548152602001600382018054600181600116156101000203166002900480601f0160208091040260200160405190810160405280929190818152602001828054600181600116156101000203166002900480156115be5780601f10611593576101008083540402835291602001916115be565b820191906000526020600020905b8154815290600101906020018083116115a157829003601f168201915b50505050508152602001600482018054600181600116156101000203166002900480601f0160208091040260200160405190810160405280929190818152602001828054600181600116156101000203166002900480156116605780601f1061163557610100808354040283529160200191611660565b820191906000526020600020905b81548152906001019060200180831161164357829003601f168201915b50505050508152602001600582018054600181600116156101000203166002900480601f0160208091040260200160405190810160405280929190818152602001828054600181600116156101000203166002900480156117025780601f106116d757610100808354040283529160200191611702565b820191906000526020600020905b8154815290600101906020018083116116e557829003601f168201915b5050505050815260200160068201548152602001600782015481525050838381518110151561172d57fe5b9060200190602002018190525081806001019250505b8080600101915050611413565b50819350505050919050565b6000600254905090565b60045481565b60008111151561177b57600080fd5b60056000815480929190600101919050555060a06040519081016040528060055481526020018381526020018281526020013373ffffffffffffffffffffffffffffffffffffffff1681526020016000151581525060066000600554815260200190815260200160002060008201518160000155602082015181600101556040820151816002015560608201518160030160006101000a81548173ffffffffffffffffffffffffffffffffffffffff021916908373ffffffffffffffffffffffffffffffffffffffff16021790555060808201518160030160146101000a81548160ff0219169083151502179055509050507faf5a0a914873638c0bd1d92c23d9929d4cc4b18b9dcab1ba576a3d21960f7a1860055483833360006040516118a795949392919061406e565b60405180910390a15050565b600180549050881015156118fc576040517f08c379a00000000000000000000000000000000000000000000000000000000081526004016118f390613e3d565b60405180910390fd5b600060018981548110151561190d57fe5b9060005260206000209060080201905060608060405190810160405280602581526020017f54c3a163207068e1baa96d2063c3b3206e68e1bbaf6e67207468617920c491e181526020017fbb95693a200000000000000000000000000000000000000000000000000000008152509050886040516020018082805190602001908083835b6020831015156119b65780518252602082019150602081019050602083039250611991565b6001836020036101000a03801982511681845116808217855250505050505090500191505060405160208183030381529060405280519060200120826001016040516020018082805460018160011615610100020316600290048015611a535780601f10611a31576101008083540402835291820191611a53565b820191906000526020600020905b815481529060010190602001808311611a3f575b505091505060405160208183030381529060405280519060200120141515611c105780826001018a6040516020018084805190602001908083835b602083101515611ab35780518252602082019150602081019050602083039250611a8e565b6001836020036101000a038019825116818451168082178552505050505050905001807f74c3aa6e2074c3a163207068e1baa96d20c491e1bb95692074e1bbab20270000815250601e0183805460018160011615610100020316600290048015611b545780601f10611b32576101008083540402835291820191611b54565b820191906000526020600020905b815481529060010190602001808311611b40575b5050807f27207468c3a06e68202700000000000000000000000000000000000000000000815250600a0182805190602001908083835b602083101515611baf5780518252602082019150602081019050602083039250611b8a565b6001836020036101000a038019825116818451168082178552505050505050905001807f272c200000000000000000000000000000000000000000000000000000000000815250600301935050505060405160208183030381529060405290505b878260020154141515611dc35780611c2b83600201546132ba565b611c348a6132ba565b6040516020018084805190602001908083835b602083101515611c6c5780518252602082019150602081019050602083039250611c47565b6001836020036101000a038019825116818451168082178552505050505050905001807f6ec4836d2073c3a16e672074c3a16320c491e1bb95692074e1bbab2027000000815250601d0183805190602001908083835b602083101515611ce75780518252602082019150602081019050602083039250611cc2565b6001836020036101000a038019825116818451168082178552505050505050905001807f27207468c3a06e68202700000000000000000000000000000000000000000000815250600a0182805190602001908083835b602083101515611d625780518252602082019150602081019050602083039250611d3d565b6001836020036101000a038019825116818451168082178552505050505050905001807f272c200000000000000000000000000000000000000000000000000000000000815250600301935050505060405160208183030381529060405290505b866040516020018082805190602001908083835b602083101515611dfc5780518252602082019150602081019050602083039250611dd7565b6001836020036101000a03801982511681845116808217855250505050505090500191505060405160208183030381529060405280519060200120826003016040516020018082805460018160011615610100020316600290048015611e995780601f10611e77576101008083540402835291820191611e99565b820191906000526020600020905b815481529060010190602001808311611e85575b505091505060405160208183030381529060405280519060200120141515612056578082600301886040516020018084805190602001908083835b602083101515611ef95780518252602082019150602081019050602083039250611ed4565b6001836020036101000a038019825116818451168082178552505050505050905001807f6dc3b42074e1baa320c491e1bb95692074e1bbab20270000000000000000000081525060160183805460018160011615610100020316600290048015611f9a5780601f10611f78576101008083540402835291820191611f9a565b820191906000526020600020905b815481529060010190602001808311611f86575b5050807f27207468c3a06e68202700000000000000000000000000000000000000000000815250600a0182805190602001908083835b602083101515611ff55780518252602082019150602081019050602083039250611fd0565b6001836020036101000a038019825116818451168082178552505050505050905001807f272c200000000000000000000000000000000000000000000000000000000000815250600301935050505060405160208183030381529060405290505b856040516020018082805190602001908083835b60208310151561208f578051825260208201915060208101905060208303925061206a565b6001836020036101000a0380198251168184511680821785525050505050509050019150506040516020818303038152906040528051906020012082600401604051602001808280546001816001161561010002031660029004801561212c5780601f1061210a57610100808354040283529182019161212c565b820191906000526020600020905b815481529060010190602001808311612118575b5050915050604051602081830303815290604052805190602001201415156122e9578082600401876040516020018084805190602001908083835b60208310151561218c5780518252602082019150602081019050602083039250612167565b6001836020036101000a038019825116818451168082178552505050505050905001807f7468e1bb83206c6fe1baa16920c491e1bb95692074e1bbab2027000000000000815250601a018380546001816001161561010002031660029004801561222d5780601f1061220b57610100808354040283529182019161222d565b820191906000526020600020905b815481529060010190602001808311612219575b5050807f27207468c3a06e68202700000000000000000000000000000000000000000000815250600a0182805190602001908083835b6020831015156122885780518252602082019150602081019050602083039250612263565b6001836020036101000a038019825116818451168082178552505050505050905001807f272c200000000000000000000000000000000000000000000000000000000000815250600301935050505060405160208183030381529060405290505b846040516020018082805190602001908083835b60208310151561232257805182526020820191506020810190506020830392506122fd565b6001836020036101000a038019825116818451168082178552505050505050905001915050604051602081830303815290604052805190602001208260050160405160200180828054600181600116156101000203166002900480156123bf5780601f1061239d5761010080835404028352918201916123bf565b820191906000526020600020905b8154815290600101906020018083116123ab575b50509150506040516020818303038152906040528051906020012014151561257c578082600501866040516020018084805190602001908083835b60208310151561241f57805182526020820191506020810190506020830392506123fa565b6001836020036101000a038019825116818451168082178552505050505050905001807f74c3a163206769e1baa320c491e1bb95692074e1bbab20270000000000000000815250601801838054600181600116156101000203166002900480156124c05780601f1061249e5761010080835404028352918201916124c0565b820191906000526020600020905b8154815290600101906020018083116124ac575b5050807f27207468c3a06e68202700000000000000000000000000000000000000000000815250600a0182805190602001908083835b60208310151561251b57805182526020820191506020810190506020830392506124f6565b6001836020036101000a038019825116818451168082178552505050505050905001807f272c200000000000000000000000000000000000000000000000000000000000815250600301935050505060405160208183030381529060405290505b838260060154141580156125905750600384145b1561262d57806040516020018082805190602001908083835b6020831015156125ce57805182526020820191506020810190506020830392506125a9565b6001836020036101000a038019825116818451168082178552505050505050905001807f61646d696e20c491c3a320647579e1bb87742074c3a163207068e1baa96d0000815250601e0191505060405160208183030381529060405290505b838260060154141580156126415750600284145b156126de57806040516020018082805190602001908083835b60208310151561267f578051825260208201915060208101905060208303925061265a565b6001836020036101000a038019825116818451168082178552505050505050905001807f61646d696e20c491c3a320e1baa96e2074c3a163207068e1baa96d0000000000815250601b0191505060405160208183030381529060405290505b6000815111801561278c57507f2c0000000000000000000000000000000000000000000000000000000000000081600183510381518110151561271d57fe5b9060200101517f010000000000000000000000000000000000000000000000000000000000000090047f0100000000000000000000000000000000000000000000000000000000000000027effffffffffffffffffffffffffffffffffffffffffffffffffffffffffffff1916145b1561288957606060028251036040519080825280601f01601f1916602001820160405280156127ca5781602001600182028038833980820191505090505b50905060008090505b60028351038110156128835782818151811015156127ed57fe5b9060200101517f010000000000000000000000000000000000000000000000000000000000000090047f010000000000000000000000000000000000000000000000000000000000000002828281518110151561284657fe5b9060200101907effffffffffffffffffffffffffffffffffffffffffffffffffffffffffffff1916908160001a90535080806001019150506127d3565b50809150505b60008151111561298a57897fd9a1ff3b9c6197fa27005c7c65b379e56e1a399baf0ccfe737e056f838ac17328a8a8a8a8a8a8a6040516128cf9796959493929190613d92565b60405180910390a26128e281868c610d0c565b888260010190805190602001906128fa92919061354f565b508782600201819055508682600301908051906020019061291c92919061354f565b508582600401908051906020019061293592919061354f565b508482600501908051906020019061294e92919061354f565b50838260060181905550828260070181905550600061296f8a89898c61055e565b9050806000808d815260200190815260200160002081905550505b50505050505050505050565b6001818154811015156129a557fe5b9060005260206000209060080201600091509050806000015490806001018054600181600116156101000203166002900480601f016020809104026020016040519081016040528092919081815260200182805460018160011615610100020316600290048015612a575780601f10612a2c57610100808354040283529160200191612a57565b820191906000526020600020905b815481529060010190602001808311612a3a57829003601f168201915b505050505090806002015490806003018054600181600116156101000203166002900480601f016020809104026020016040519081016040528092919081815260200182805460018160011615610100020316600290048015612afb5780601f10612ad057610100808354040283529160200191612afb565b820191906000526020600020905b815481529060010190602001808311612ade57829003601f168201915b505050505090806004018054600181600116156101000203166002900480601f016020809104026020016040519081016040528092919081815260200182805460018160011615610100020316600290048015612b995780601f10612b6e57610100808354040283529160200191612b99565b820191906000526020600020905b815481529060010190602001808311612b7c57829003601f168201915b505050505090806005018054600181600116156101000203166002900480601f016020809104026020016040519081016040528092919081815260200182805460018160011615610100020316600290048015612c375780601f10612c0c57610100808354040283529160200191612c37565b820191906000526020600020905b815481529060010190602001808311612c1a57829003601f168201915b5050505050908060060154908060070154905088565b6000600454905090565b600080600190505b60055481111515612ccc57826006600083815260200190815260200160002060010154148015612cb057506006600082815260200190815260200160002060030160149054906101000a900460ff16155b15612cbf576001915050612cd2565b8080600101915050612c5f565b50600090505b919050565b60006020528060005260406000206000915090505481565b60055481565b600381815481101515612d0457fe5b9060005260206000209060050201600091509050806000015490806001015490806002018054600181600116156101000203166002900480601f016020809104026020016040519081016040528092919081815260200182805460018160011615610100020316600290048015612dbc5780601f10612d9157610100808354040283529160200191612dbc565b820191906000526020600020905b815481529060010190602001808311612d9f57829003601f168201915b505050505090806003018054600181600116156101000203166002900480601f016020809104026020016040519081016040528092919081815260200182805460018160011615610100020316600290048015612e5a5780601f10612e2f57610100808354040283529160200191612e5a565b820191906000526020600020905b815481529060010190602001808311612e3d57829003601f168201915b5050505050908060040154905085565b612e726135cf565b6006600085815260200190815260200160002060a060405190810160405290816000820154815260200160018201548152602001600282015481526020016003820160009054906101000a900473ffffffffffffffffffffffffffffffffffffffff1673ffffffffffffffffffffffffffffffffffffffff1673ffffffffffffffffffffffffffffffffffffffff1681526020016003820160149054906101000a900460ff161515151581525050905060008160600151905060008260000151118015612f455750600554826000015111155b1515612f5057600080fd5b81604001513410151515612f6357600080fd5b3373ffffffffffffffffffffffffffffffffffffffff168173ffffffffffffffffffffffffffffffffffffffff1614151515612f9e57600080fd5b6000826020015190506000600182815481101515612fb857fe5b906000526020600020906008020190506060816005018660405160200180807f42e1baa36e20717579e1bb816e2074c3a163207068e1baa96d20c491c3a3206381526020017f687579e1bb836e206e68c6b0e1bba36e672074e1bbab200000000000000000008152506037018380546001816001161561010002031660029004801561307b5780601f1061305957610100808354040283529182019161307b565b820191906000526020600020905b815481529060010190602001808311613067575b5050807f2073616e6720000000000000000000000000000000000000000000000000000081525060060182805190602001908083835b6020831015156130d657805182526020820191506020810190506020830392506130b1565b6001836020036101000a038019825116818451168082178552505050505050905001925050506040516020818303038152906040529050613118818785610d0c565b8682600701819055508582600501908051906020019061313992919061354f565b5033856060019073ffffffffffffffffffffffffffffffffffffffff16908173ffffffffffffffffffffffffffffffffffffffff1681525050600185608001901515908115158152505084600660008a815260200190815260200160002060008201518160000155602082015181600101556040820151816002015560608201518160030160006101000a81548173ffffffffffffffffffffffffffffffffffffffff021916908373ffffffffffffffffffffffffffffffffffffffff16021790555060808201518160030160146101000a81548160ff0219169083151502179055509050508373ffffffffffffffffffffffffffffffffffffffff166108fc349081150290604051600060405180830381858888f19350505050158015613265573d6000803e3d6000fd5b507fadc6a3e5f30f0556b5dd40b296b9c1c33093865ce32cd2d151082a6eebda76e1600554866020015187604001513360016040516132a895949392919061406e565b60405180910390a15050505050505050565b60606000821415613302576040805190810160405280600181526020017f3000000000000000000000000000000000000000000000000000000000000000815250905061340e565b600082905060005b600082141515613330578080600101915050600a8281151561332857fe5b04915061330a565b6060816040519080825280601f01601f1916602001820160405280156133655781602001600182028038833980820191505090505b50905060006001830390505b60008614151561340657600a8681151561338757fe5b066030017f0100000000000000000000000000000000000000000000000000000000000000028282806001900393508151811015156133c257fe5b9060200101907effffffffffffffffffffffffffffffffffffffffffffffffffffffffffffff1916908160001a905350600a868115156133fe57fe5b049550613371565b819450505050505b919050565b60a06040519081016040528060008152602001600081526020016060815260200160608152602001600081525090565b828054600181600116156101000203166002900490600052602060002090601f016020900481019282601f1061348457805160ff19168380011785556134b2565b828001600101855582156134b2579182015b828111156134b1578251825591602001919060010190613496565b5b5090506134bf9190613617565b5090565b6101006040519081016040528060008152602001606081526020016000815260200160608152602001606081526020016060815260200160008152602001600081525090565b6101006040519081016040528060008152602001606081526020016000815260200160608152602001606081526020016060815260200160008152602001600081525090565b828054600181600116156101000203166002900490600052602060002090601f016020900481019282601f1061359057805160ff19168380011785556135be565b828001600101855582156135be579182015b828111156135bd5782518255916020019190600101906135a2565b5b5090506135cb9190613617565b5090565b60a060405190810160405280600081526020016000815260200160008152602001600073ffffffffffffffffffffffffffffffffffffffff1681526020016000151581525090565b61363991905b8082111561363557600081600090555060010161361d565b5090565b90565b600082601f830112151561364f57600080fd5b813561366261365d826140ee565b6140c1565b9150808252602083016020830185838301111561367e57600080fd5b6136898382846141b1565b50505092915050565b600061369e82356141a7565b905092915050565b600080600080608085870312156136bc57600080fd5b600085013567ffffffffffffffff8111156136d657600080fd5b6136e28782880161363c565b945050602085013567ffffffffffffffff8111156136ff57600080fd5b61370b8782880161363c565b935050604085013567ffffffffffffffff81111561372857600080fd5b6137348782880161363c565b925050606061374587828801613692565b91505092959194509250565b60008060006060848603121561376657600080fd5b600084013567ffffffffffffffff81111561378057600080fd5b61378c8682870161363c565b935050602084013567ffffffffffffffff8111156137a957600080fd5b6137b58682870161363c565b92505060406137c686828701613692565b9150509250925092565b600080600080600080600060e0888a0312156137eb57600080fd5b600088013567ffffffffffffffff81111561380557600080fd5b6138118a828b0161363c565b97505060206138228a828b01613692565b965050604088013567ffffffffffffffff81111561383f57600080fd5b61384b8a828b0161363c565b955050606088013567ffffffffffffffff81111561386857600080fd5b6138748a828b0161363c565b945050608088013567ffffffffffffffff81111561389157600080fd5b61389d8a828b0161363c565b93505060a06138ae8a828b01613692565b92505060c06138bf8a828b01613692565b91505092959891949750929550565b6000602082840312156138e057600080fd5b60006138ee84828501613692565b91505092915050565b600080600080600080600080610100898b03121561391457600080fd5b60006139228b828c01613692565b985050602089013567ffffffffffffffff81111561393f57600080fd5b61394b8b828c0161363c565b975050604061395c8b828c01613692565b965050606089013567ffffffffffffffff81111561397957600080fd5b6139858b828c0161363c565b955050608089013567ffffffffffffffff8111156139a257600080fd5b6139ae8b828c0161363c565b94505060a089013567ffffffffffffffff8111156139cb57600080fd5b6139d78b828c0161363c565b93505060c06139e88b828c01613692565b92505060e06139f98b828c01613692565b9150509295985092959890939650565b60008060408385031215613a1c57600080fd5b6000613a2a85828601613692565b9250506020613a3b85828601613692565b9150509250929050565b600080600060608486031215613a5a57600080fd5b6000613a6886828701613692565b9350506020613a7986828701613692565b925050604084013567ffffffffffffffff811115613a9657600080fd5b613aa28682870161363c565b9150509250925092565b613ab581614155565b82525050565b6000613ac682614127565b80845260208401935083602082028501613adf8561411a565b60005b84811015613b18578383038852613afa838351613c21565b9250613b0582614148565b9150602088019750600181019050613ae2565b508196508694505050505092915050565b613b3281614167565b82525050565b613b4181614173565b82525050565b6000613b528261413d565b808452613b668160208601602086016141c0565b613b6f816141f3565b602085010191505092915050565b6000613b8882614132565b808452613b9c8160208601602086016141c0565b613ba5816141f3565b602085010191505092915050565b6000601182527f496e76616c6964206c6f6720696e6465780000000000000000000000000000006020830152604082019050919050565b6000600f82527f496e76616c696420776f726b20494400000000000000000000000000000000006020830152604082019050919050565b600061010083016000830151613c3a6000860182613ce6565b5060208301518482036020860152613c528282613b7d565b9150506040830151613c676040860182613ce6565b5060608301518482036060860152613c7f8282613b7d565b91505060808301518482036080860152613c998282613b7d565b91505060a083015184820360a0860152613cb38282613b7d565b91505060c0830151613cc860c0860182613ce6565b5060e0830151613cdb60e0860182613ce6565b508091505092915050565b613cef8161419d565b82525050565b60006020820190508181036000830152613d0f8184613abb565b905092915050565b6000602082019050613d2c6000830184613b29565b92915050565b6000602082019050613d476000830184613b38565b92915050565b60006060820190508181036000830152613d678186613b47565b90508181036020830152613d7b8185613b47565b9050613d8a6040830184613ce6565b949350505050565b600060e0820190508181036000830152613dac818a613b47565b9050613dbb6020830189613ce6565b8181036040830152613dcd8188613b47565b90508181036060830152613de18187613b47565b90508181036080830152613df58186613b47565b9050613e0460a0830185613ce6565b613e1160c0830184613ce6565b98975050505050505050565b60006020820190508181036000830152613e3681613bb3565b9050919050565b60006020820190508181036000830152613e5681613bea565b9050919050565b6000602082019050613e726000830184613ce6565b92915050565b600061010082019050613e8e600083018b613ce6565b8181036020830152613ea0818a613b47565b9050613eaf6040830189613ce6565b8181036060830152613ec18188613b47565b90508181036080830152613ed58187613b47565b905081810360a0830152613ee98186613b47565b9050613ef860c0830185613b38565b613f0560e0830184613ce6565b9998505050505050505050565b600061010082019050613f28600083018b613ce6565b8181036020830152613f3a818a613b7d565b9050613f496040830189613ce6565b8181036060830152613f5b8188613b7d565b90508181036080830152613f6f8187613b7d565b905081810360a0830152613f838186613b7d565b9050613f9260c0830185613ce6565b613f9f60e0830184613ce6565b9998505050505050505050565b600060a082019050613fc16000830188613ce6565b613fce6020830187613ce6565b8181036040830152613fe08186613b47565b90508181036060830152613ff48185613b47565b90506140036080830184613ce6565b9695505050505050565b600060a0820190506140226000830188613ce6565b61402f6020830187613ce6565b81810360408301526140418186613b7d565b905081810360608301526140558185613b7d565b90506140646080830184613ce6565b9695505050505050565b600060a0820190506140836000830188613ce6565b6140906020830187613ce6565b61409d6040830186613ce6565b6140aa6060830185613aac565b6140b76080830184613b29565b9695505050505050565b6000604051905081810181811067ffffffffffffffff821117156140e457600080fd5b8060405250919050565b600067ffffffffffffffff82111561410557600080fd5b601f19601f8301169050602081019050919050565b6000602082019050919050565b600081519050919050565b600081519050919050565b600081519050919050565b6000602082019050919050565b60006141608261417d565b9050919050565b60008115159050919050565b6000819050919050565b600073ffffffffffffffffffffffffffffffffffffffff82169050919050565b6000819050919050565b6000819050919050565b82818337600083830152505050565b60005b838110156141de5780820151818401526020810190506141c3565b838111156141ed576000848401525b50505050565b6000601f19601f830116905091905056fea265627a7a7230582098a6d8ed96b5c29b2cf0cb8e4543665c8abf679efa5bce60c5fcde8fdf06f44c6c6578706572696d656e74616cf50037",
  "source": "pragma solidity ^0.5.0;\n\npragma experimental ABIEncoderV2;\n\n\n\n\ncontract Marketplace {\n    struct Work {\n        uint id;\n        string title;\n        uint yearCreate;\n        string describe;\n        string category;\n        string nameCreator;\n        uint status;\n        uint userId;\n    }\n\n     struct Log {\n        uint id;\n        uint timestamp;\n        string content;\n        string sender;\n        uint workId;\n    }\n\n    mapping(uint => bytes32) public workHashes;\n    Work[] public works;\n    uint public workCount;\n\n     Log[] public logs;\n    uint public logCount;\n\n    event WorkCreated(uint indexed id, string title, uint yearCreate, string describe, string category, string nameCreator, uint status, uint userId);\n    event WorkUpdated(uint indexed id, string title, uint yearCreate, string describe, string category, string nameCreator, uint status, uint userId);\n    event LogAdded(uint indexed id, uint indexed timestamp, string content, string sender, uint workId);\n\n    function createWork(string memory _title, uint _yearCreate, string memory _describe, string memory _category, string memory _nameCreator, uint _status, uint _userId) public {\n        works.push(Work(workCount, _title, _yearCreate, _describe, _category, _nameCreator, _status, _userId));\n       \n         bytes32 hash = _calculateHash(_title, _describe, _category, _yearCreate);\n        workHashes[workCount] = hash;\n\n        emit WorkCreated(workCount, _title, _yearCreate, _describe, _category, _nameCreator, _status, _userId);\n        \n\n         // Add log for work creation\n        string memory logContent = string(abi.encodePacked(\n        \"Tc phm c to vi ta : \", _title,\n        \", nm sng tc: \", uint2str(_yearCreate), // Chuyn i uint sang string\n        \", m t: \", _describe,\n        \", th loi: \", _category,\n        \", tn tc gi: \", _nameCreator\n));\n        _addLog(logContent, _nameCreator,  workCount);\n         workCount++;\n        \n    }\n\n      function updateWork(uint _id, string memory _title, uint _yearCreate, string memory _describe, string memory _category, string memory _nameCreator, uint _status, uint _userId) public {\n        require(_id < works.length, \"Invalid work ID\");\n        Work storage work = works[_id];\n\n                    // To log ch cha nhng thng tin  thay i, dng keccak ti v trong solidity khng h tr so snh chui\n                string memory logContent = \"Tc phm c nhng thay i: \";\n                if (keccak256(abi.encodePacked(work.title)) != keccak256(abi.encodePacked(_title))) {\n                    logContent = string(abi.encodePacked(logContent, \"tn tc phm i t '\", work.title, \"' thnh '\", _title, \"', \"));\n                }\n                if (work.yearCreate != _yearCreate) {\n                    logContent = string(abi.encodePacked(logContent, \"nm sng tc i t '\", uint2str(work.yearCreate), \"' thnh '\", uint2str(_yearCreate), \"', \"));\n                }\n                if (keccak256(abi.encodePacked(work.describe)) != keccak256(abi.encodePacked(_describe))) {\n                    logContent = string(abi.encodePacked(logContent, \"m t i t '\", work.describe, \"' thnh '\", _describe, \"', \"));\n                }\n                if (keccak256(abi.encodePacked(work.category)) != keccak256(abi.encodePacked(_category))) {\n                    logContent = string(abi.encodePacked(logContent, \"th loi i t '\", work.category, \"' thnh '\", _category, \"', \"));\n                }\n                if (keccak256(abi.encodePacked(work.nameCreator)) != keccak256(abi.encodePacked(_nameCreator))) {\n                    logContent = string(abi.encodePacked(logContent, \"tc gi i t '\", work.nameCreator, \"' thnh '\", _nameCreator, \"', \"));\n                }\n                 if (work.status != _status && _status == 3) {\n                    logContent = string(abi.encodePacked(logContent, \"admin  duyt tc phm\"));\n                }\n                 if (work.status != _status && _status == 2) {\n                    logContent = string(abi.encodePacked(logContent, \"admin  n tc phm\"));\n                }\n\n                // Loi b du ',' cui cng nu c\n                if (bytes(logContent).length > 0 && bytes(logContent)[bytes(logContent).length - 1] == ',') {\n                bytes memory trimmedBytes = new bytes(bytes(logContent).length - 2);\n            for (uint i = 0; i < bytes(logContent).length - 2; i++) {\n                trimmedBytes[i] = bytes(logContent)[i];\n            }\n            logContent = string(trimmedBytes);\n\n                }\n\n                // Nu c thng tin thay i, thm log v cp nht tc phm\n                if (bytes(logContent).length > 0) {\n                    emit WorkUpdated(_id, _title, _yearCreate, _describe, _category, _nameCreator, _status, _userId);\n                    _addLog(logContent, _nameCreator, _id);\n\n                    // Cp nht thng tin tc phm\n                    work.title = _title;\n                    work.yearCreate = _yearCreate;\n                    work.describe = _describe;\n                    work.category = _category;\n                    work.nameCreator = _nameCreator;\n                    work.status = _status;\n                    work.userId = _userId;\n                     // Cp nht hash ca tc phm\n                    bytes32 hash = _calculateHash(_title, _describe, _category, _yearCreate);\n                    workHashes[_id] = hash;\n                }\n        \n    }\n\n     function _addLog(string memory _content, string memory _sender, uint _workId) public {\n        uint timestamp = block.timestamp;\n        Log memory newLog = Log(logCount + 1, timestamp, _content, _sender, _workId);\n        logs.push(newLog);\n        emit LogAdded(logCount + 1, timestamp, _content, _sender, _workId);\n        logCount++;\n    }\n\n    function getLogsCount() public view returns (uint) {\n        return logCount;\n    }\n\n    function getLog(uint _index) public view returns (uint id, uint timestamp, string memory content, string memory sender, uint workId) {\n        require(_index < logs.length, \"Invalid log index\");\n        Log memory log = logs[_index];\n        return (log.id, log.timestamp, log.content, log.sender, log.workId);\n    }\n\n\n    function getWorkCount() public view returns (uint) {\n        return workCount;\n    }\n\n    function getWork(uint _id) public view returns (uint, string memory, uint, string memory, string memory, string memory, bytes32, uint) {\n        //require(_id < works.length, \"Invalid work ID\");\n        Work memory work = works[_id];\n         bytes32 hash = workHashes[_id];\n          return (work.id, work.title, work.yearCreate, work.describe, work.category, work.nameCreator, hash, work.userId);\n    }\n\n    function _calculateHash(string memory _title, string memory _describe, string memory _category, uint _yearCreate) public pure returns (bytes32) {\n    return keccak256(abi.encodePacked(_title, _describe, _category, _yearCreate));\n}\n\nfunction getWorkHash(uint _id) public view returns (bytes32) {\n    require(_id < works.length, \"Invalid work ID\");\n    return workHashes[_id];\n}\n\n\n//Chuyn i t s nguyn sang chui\nfunction uint2str(uint _i) internal pure returns (string memory _uintAsString) {\n    if (_i == 0) {\n        return \"0\";\n    }\n    uint j = _i;\n    uint len;\n    while (j != 0) {\n        len++;\n        j /= 10;\n    }\n    bytes memory bstr = new bytes(len);\n    uint k = len - 1;\n    while (_i != 0) {\n        bstr[k--] = byte(uint8(48 + _i % 10));\n        _i /= 10;\n    }\n    return string(bstr);\n}\n\n\n // Define a function to concatenate two strings\n    function concatenateStrings(string memory _a, string memory _b) internal pure returns (string memory) {\n        bytes memory _ba = bytes(_a);\n        bytes memory _bb = bytes(_b);\n        string memory ab = new string(_ba.length + _bb.length);\n        bytes memory bab = bytes(ab);\n        uint k = 0;\n        for (uint i = 0; i < _ba.length; i++) bab[k++] = _ba[i];\n        for (uint i = 0; i < _bb.length; i++) bab[k++] = _bb[i];\n        return string(bab);\n    }\n\n    function getWorksByUserId(uint _userId) public view returns (Work[] memory) {\n    uint counter = 0;\n    for (uint i = 0; i < workCount; i++) {\n        if (works[i].userId == _userId) {\n            counter++;\n        }\n    }\n    Work[] memory worksByUserId = new Work[](counter);\n    uint index = 0;\n    for (uint j = 0; j < workCount; j++) {\n        if (works[j].userId == _userId) {\n            worksByUserId[index] = works[j];\n            index++;\n        }\n    }\n    return worksByUserId;\n}\n\n\n \n    uint public productCount = 0;\n    mapping(uint => Product) public products;\n\n    struct Product {\n        uint id;\n        uint idWork;\n        uint price;\n        address payable owner;\n        bool purchased;\n    }\n\n    event ProductCreated(\n        uint id,\n        uint idWork,\n        uint price,\n        address payable owner,\n        bool purchased\n    );\n\n    event ProductPurchased(\n        uint id,\n        uint idWork,\n        uint price,\n        address payable owner,\n        bool purchased\n    );\n\n   \n\n    function createProduct(uint _idWork, uint _price) public {\n      \n        // Require a valid price\n        require(_price > 0);\n        // Increment product count\n        productCount ++;\n        // Create the product\n        products[productCount] = Product(productCount, _idWork, _price, msg.sender, false);\n        // Trigger an event\n        emit ProductCreated(productCount, _idWork, _price, msg.sender, false);\n    }\n\n    function purchaseProduct(uint _id, uint _userId, string memory _nameCreator) public payable {\n        // Fetch the product\n        Product memory _product = products[_id];\n        // Fetch the owner\n        address payable _seller = _product.owner;\n        // Make sure the product has a valid id\n        require(_product.id > 0 && _product.id <= productCount);\n        // Require that there is enough Ether in the transaction\n        require(msg.value >= _product.price);\n        // Require that the product has not been purchased already\n        //require(!_product.purchased);\n        // Require that the buyer is not the seller\n        require(_seller != msg.sender);\n\n\n // Fetch the corresponding work\n    uint workId = _product.idWork;\n    Work storage _work = works[workId];\n      \n // Add log for product purchase\n    string memory logContent = string(abi.encodePacked(\n        \"Bn quyn tc phm  chuyn nhng t \", _work.nameCreator, \" sang \", _nameCreator\n    ));\n    _addLog(logContent, _nameCreator, workId);\n\n    // Update userID and nameCreator in the work\n    _work.userId = _userId;\n    _work.nameCreator = _nameCreator;\n\n\n\n\n        // Transfer ownership to the buyer\n        _product.owner = msg.sender;\n        // Mark as purchased\n        _product.purchased = true;\n        // Update the product\n        products[_id] = _product;\n        // Pay the seller by sending them Ether\n        address(_seller).transfer(msg.value);\n        // Trigger an event\n        emit ProductPurchased(productCount, _product.idWork, _product.price, msg.sender, true);\n    }\n\n    function hasProductWithIdWorkAndNotPurchased(uint _idWork) public view returns (bool) {\n    for (uint i = 1; i <= productCount; i++) {\n        if (products[i].idWork == _idWork && !products[i].purchased) {\n            return true;\n        }\n    }\n    return false;\n}\n\nfunction markProductsAsPurchased(uint _idWork) public {\n    //require(_idWork > 0, \"Invalid ID Work\");\n\n    for (uint i = 1; i <= productCount; i++) {\n        if (products[i].idWork == _idWork) {\n            products[i].purchased = true;\n            emit ProductPurchased(products[i].id, products[i].idWork, products[i].price, products[i].owner, true);\n        }\n    }\n}\n\n\n\n\n\n\n\n   \n}\n",
  "sourcePath": "D:/BIN/blockchain/marketplace-part-2/src/contracts/Marketplace.sol",
  "compiler": {
    "name": "solc",
    "version": "0.5.0+commit.1d4f565a.Emscripten.clang"
  },
  "schemaVersion": "3.0.2",
  "updatedAt": "2024-06-01T05:38:14.134Z",
  "devdoc": {
    "methods": {}
  },
  "userdoc": {
    "methods": {}
  }
}