{
  "contractName": "User",
  "abi": [
    {
      "constant": false,
      "inputs": [
        {
          "name": "_username",
          "type": "string"
        },
        {
          "name": "_password",
          "type": "string"
        },
        {
          "name": "_name",
          "type": "string"
        },
        {
          "name": "_citizenID",
          "type": "string"
        },
        {
          "name": "_birthDay",
          "type": "string"
        },
        {
          "name": "_email",
          "type": "string"
        },
        {
          "name": "_role",
          "type": "uint256"
        }
      ],
      "name": "registerUser",
      "outputs": [],
      "payable": false,
      "stateMutability": "nonpayable",
      "type": "function",
      "signature": "0x0ec3059e"
    },
    {
      "constant": true,
      "inputs": [
        {
          "name": "_username",
          "type": "string"
        },
        {
          "name": "_password",
          "type": "string"
        }
      ],
      "name": "login",
      "outputs": [
        {
          "name": "",
          "type": "bool"
        }
      ],
      "payable": false,
      "stateMutability": "view",
      "type": "function",
      "signature": "0x58467dbc"
    },
    {
      "constant": true,
      "inputs": [
        {
          "name": "_username",
          "type": "string"
        }
      ],
      "name": "getUserByUsername",
      "outputs": [
        {
          "name": "",
          "type": "uint256"
        },
        {
          "name": "",
          "type": "string"
        },
        {
          "name": "",
          "type": "string"
        },
        {
          "name": "",
          "type": "string"
        },
        {
          "name": "",
          "type": "string"
        },
        {
          "name": "",
          "type": "uint256"
        },
        {
          "name": "",
          "type": "string"
        },
        {
          "name": "",
          "type": "string"
        }
      ],
      "payable": false,
      "stateMutability": "view",
      "type": "function",
      "signature": "0x9f42af63"
    },
    {
      "constant": true,
      "inputs": [],
      "name": "getUserCount",
      "outputs": [
        {
          "name": "",
          "type": "uint256"
        }
      ],
      "payable": false,
      "stateMutability": "view",
      "type": "function",
      "signature": "0xb5cb15f7"
    },
    {
      "constant": true,
      "inputs": [
        {
          "name": "_userId",
          "type": "uint256"
        }
      ],
      "name": "getUser",
      "outputs": [
        {
          "name": "",
          "type": "uint256"
        },
        {
          "name": "",
          "type": "string"
        },
        {
          "name": "",
          "type": "string"
        },
        {
          "name": "",
          "type": "string"
        },
        {
          "name": "",
          "type": "string"
        },
        {
          "name": "",
          "type": "uint256"
        },
        {
          "name": "",
          "type": "string"
        },
        {
          "name": "",
          "type": "string"
        }
      ],
      "payable": false,
      "stateMutability": "view",
      "type": "function",
      "signature": "0xb0467deb"
    },
    {
      "constant": true,
      "inputs": [
        {
          "name": "_password",
          "type": "string"
        }
      ],
      "name": "hashPassword",
      "outputs": [
        {
          "name": "",
          "type": "bytes32"
        }
      ],
      "payable": false,
      "stateMutability": "pure",
      "type": "function",
      "signature": "0x3f75a07d"
    }
  ],
  "bytecode": "0x6080604052600160025534801561001557600080fd5b50612046806100256000396000f3fe608060405260043610610078576000357c0100000000000000000000000000000000000000000000000000000000900463ffffffff1680630ec3059e1461007d5780633f75a07d1461044257806358467dbc1461051e5780639f42af6314610695578063b0467deb14610a00578063b5cb15f714610cde575b600080fd5b34801561008957600080fd5b50610440600480360360e08110156100a057600080fd5b81019080803590602001906401000000008111156100bd57600080fd5b8201836020820111156100cf57600080fd5b803590602001918460018302840111640100000000831117156100f157600080fd5b91908080601f016020809104026020016040519081016040528093929190818152602001838380828437600081840152601f19601f8201169050808301925050505050505091929192908035906020019064010000000081111561015457600080fd5b82018360208201111561016657600080fd5b8035906020019184600183028401116401000000008311171561018857600080fd5b91908080601f016020809104026020016040519081016040528093929190818152602001838380828437600081840152601f19601f820116905080830192505050505050509192919290803590602001906401000000008111156101eb57600080fd5b8201836020820111156101fd57600080fd5b8035906020019184600183028401116401000000008311171561021f57600080fd5b91908080601f016020809104026020016040519081016040528093929190818152602001838380828437600081840152601f19601f8201169050808301925050505050505091929192908035906020019064010000000081111561028257600080fd5b82018360208201111561029457600080fd5b803590602001918460018302840111640100000000831117156102b657600080fd5b91908080601f016020809104026020016040519081016040528093929190818152602001838380828437600081840152601f19601f8201169050808301925050505050505091929192908035906020019064010000000081111561031957600080fd5b82018360208201111561032b57600080fd5b8035906020019184600183028401116401000000008311171561034d57600080fd5b91908080601f016020809104026020016040519081016040528093929190818152602001838380828437600081840152601f19601f820116905080830192505050505050509192919290803590602001906401000000008111156103b057600080fd5b8201836020820111156103c257600080fd5b803590602001918460018302840111640100000000831117156103e457600080fd5b91908080601f016020809104026020016040519081016040528093929190818152602001838380828437600081840152601f19601f82011690508083019250505050505050919291929080359060200190929190505050610d09565b005b34801561044e57600080fd5b506105086004803603602081101561046557600080fd5b810190808035906020019064010000000081111561048257600080fd5b82018360208201111561049457600080fd5b803590602001918460018302840111640100000000831117156104b657600080fd5b91908080601f016020809104026020016040519081016040528093929190818152602001838380828437600081840152601f19601f820116905080830192505050505050509192919290505050611071565b6040518082815260200191505060405180910390f35b34801561052a57600080fd5b5061067b6004803603604081101561054157600080fd5b810190808035906020019064010000000081111561055e57600080fd5b82018360208201111561057057600080fd5b8035906020019184600183028401116401000000008311171561059257600080fd5b91908080601f016020809104026020016040519081016040528093929190818152602001838380828437600081840152601f19601f820116905080830192505050505050509192919290803590602001906401000000008111156105f557600080fd5b82018360208201111561060757600080fd5b8035906020019184600183028401116401000000008311171561062957600080fd5b91908080601f016020809104026020016040519081016040528093929190818152602001838380828437600081840152601f19601f8201169050808301925050505050505091929192905050506110ee565b604051808215151515815260200191505060405180910390f35b3480156106a157600080fd5b5061075b600480360360208110156106b857600080fd5b81019080803590602001906401000000008111156106d557600080fd5b8201836020820111156106e757600080fd5b8035906020019184600183028401116401000000008311171561070957600080fd5b91908080601f016020809104026020016040519081016040528093929190818152602001838380828437600081840152601f19601f82011690508083019250505050505050919291929050505061158b565b6040518089815260200180602001806020018060200180602001888152602001806020018060200187810387528e818151815260200191508051906020019080838360005b838110156107bb5780820151818401526020810190506107a0565b50505050905090810190601f1680156107e85780820380516001836020036101000a031916815260200191505b5087810386528d818151815260200191508051906020019080838360005b83811015610821578082015181840152602081019050610806565b50505050905090810190601f16801561084e5780820380516001836020036101000a031916815260200191505b5087810385528c818151815260200191508051906020019080838360005b8381101561088757808201518184015260208101905061086c565b50505050905090810190601f1680156108b45780820380516001836020036101000a031916815260200191505b5087810384528b818151815260200191508051906020019080838360005b838110156108ed5780820151818401526020810190506108d2565b50505050905090810190601f16801561091a5780820380516001836020036101000a031916815260200191505b50878103835289818151815260200191508051906020019080838360005b83811015610953578082015181840152602081019050610938565b50505050905090810190601f1680156109805780820380516001836020036101000a031916815260200191505b50878103825288818151815260200191508051906020019080838360005b838110156109b957808201518184015260208101905061099e565b50505050905090810190601f1680156109e65780820380516001836020036101000a031916815260200191505b509e50505050505050505050505050505060405180910390f35b348015610a0c57600080fd5b50610a3960048036036020811015610a2357600080fd5b8101908080359060200190929190505050611a83565b6040518089815260200180602001806020018060200180602001888152602001806020018060200187810387528e818151815260200191508051906020019080838360005b83811015610a99578082015181840152602081019050610a7e565b50505050905090810190601f168015610ac65780820380516001836020036101000a031916815260200191505b5087810386528d818151815260200191508051906020019080838360005b83811015610aff578082015181840152602081019050610ae4565b50505050905090810190601f168015610b2c5780820380516001836020036101000a031916815260200191505b5087810385528c818151815260200191508051906020019080838360005b83811015610b65578082015181840152602081019050610b4a565b50505050905090810190601f168015610b925780820380516001836020036101000a031916815260200191505b5087810384528b818151815260200191508051906020019080838360005b83811015610bcb578082015181840152602081019050610bb0565b50505050905090810190601f168015610bf85780820380516001836020036101000a031916815260200191505b50878103835289818151815260200191508051906020019080838360005b83811015610c31578082015181840152602081019050610c16565b50505050905090810190601f168015610c5e5780820380516001836020036101000a031916815260200191505b50878103825288818151815260200191508051906020019080838360005b83811015610c97578082015181840152602081019050610c7c565b50505050905090810190601f168015610cc45780820380516001836020036101000a031916815260200191505b509e50505050505050505050505050505060405180910390f35b348015610cea57600080fd5b50610cf3611f22565b6040518082815260200191505060405180910390f35b60006001886040518082805190602001908083835b602083101515610d435780518252602082019150602081019050602083039250610d1e565b6001836020036101000a0380198251168184511680821785525050505050509050019150509081526020016040518091039020600101805460018160011615610100020316600290049050141515610e03576040517f08c379a00000000000000000000000000000000000000000000000000000000081526004018080602001828103825260178152602001807f557365726e616d6520616c72656164792065786973747300000000000000000081525060200191505060405180910390fd5b610e0b611f2f565b610100604051908101604052806002548152602001898152602001888152602001878152602001868152602001858152602001848152602001838152509050806000806002548152602001908152602001600020600082015181600001556020820151816001019080519060200190610e85929190611f75565b506040820151816002019080519060200190610ea2929190611f75565b506060820151816003019080519060200190610ebf929190611f75565b506080820151816004019080519060200190610edc929190611f75565b5060a0820151816005019080519060200190610ef9929190611f75565b5060c0820151816006019080519060200190610f16929190611f75565b5060e08201518160070155905050806001896040518082805190602001908083835b602083101515610f5d5780518252602082019150602081019050602083039250610f38565b6001836020036101000a0380198251168184511680821785525050505050509050019150509081526020016040518091039020600082015181600001556020820151816001019080519060200190610fb6929190611f75565b506040820151816002019080519060200190610fd3929190611f75565b506060820151816003019080519060200190610ff0929190611f75565b50608082015181600401908051906020019061100d929190611f75565b5060a082015181600501908051906020019061102a929190611f75565b5060c0820151816006019080519060200190611047929190611f75565b5060e082015181600701559050506002600081548092919060010191905055505050505050505050565b6000816040516020018082805190602001908083835b6020831015156110ac5780518252602082019150602081019050602083039250611087565b6001836020036101000a038019825116818451168082178552505050505050905001915050604051602081830303815290604052805190602001209050919050565b60006110f8611f2f565b6001846040518082805190602001908083835b602083101515611130578051825260208201915060208101905060208303925061110b565b6001836020036101000a0380198251168184511680821785525050505050509050019150509081526020016040518091039020610100604051908101604052908160008201548152602001600182018054600181600116156101000203166002900480601f0160208091040260200160405190810160405280929190818152602001828054600181600116156101000203166002900480156112135780601f106111e857610100808354040283529160200191611213565b820191906000526020600020905b8154815290600101906020018083116111f657829003601f168201915b50505050508152602001600282018054600181600116156101000203166002900480601f0160208091040260200160405190810160405280929190818152602001828054600181600116156101000203166002900480156112b55780601f1061128a576101008083540402835291602001916112b5565b820191906000526020600020905b81548152906001019060200180831161129857829003601f168201915b50505050508152602001600382018054600181600116156101000203166002900480601f0160208091040260200160405190810160405280929190818152602001828054600181600116156101000203166002900480156113575780601f1061132c57610100808354040283529160200191611357565b820191906000526020600020905b81548152906001019060200180831161133a57829003601f168201915b50505050508152602001600482018054600181600116156101000203166002900480601f0160208091040260200160405190810160405280929190818152602001828054600181600116156101000203166002900480156113f95780601f106113ce576101008083540402835291602001916113f9565b820191906000526020600020905b8154815290600101906020018083116113dc57829003601f168201915b50505050508152602001600582018054600181600116156101000203166002900480601f01602080910402602001604051908101604052809291908181526020018280546001816001161561010002031660029004801561149b5780601f106114705761010080835404028352916020019161149b565b820191906000526020600020905b81548152906001019060200180831161147e57829003601f168201915b50505050508152602001600682018054600181600116156101000203166002900480601f01602080910402602001604051908101604052809291908181526020018280546001816001161561010002031660029004801561153d5780601f106115125761010080835404028352916020019161153d565b820191906000526020600020905b81548152906001019060200180831161152057829003601f168201915b5050505050815260200160078201548152505090506000816020015151141561156a576000915050611585565b6115778160400151611071565b61158084611071565b149150505b92915050565b600060608060608060006060806115a0611f2f565b60018a6040518082805190602001908083835b6020831015156115d857805182526020820191506020810190506020830392506115b3565b6001836020036101000a0380198251168184511680821785525050505050509050019150509081526020016040518091039020610100604051908101604052908160008201548152602001600182018054600181600116156101000203166002900480601f0160208091040260200160405190810160405280929190818152602001828054600181600116156101000203166002900480156116bb5780601f10611690576101008083540402835291602001916116bb565b820191906000526020600020905b81548152906001019060200180831161169e57829003601f168201915b50505050508152602001600282018054600181600116156101000203166002900480601f01602080910402602001604051908101604052809291908181526020018280546001816001161561010002031660029004801561175d5780601f106117325761010080835404028352916020019161175d565b820191906000526020600020905b81548152906001019060200180831161174057829003601f168201915b50505050508152602001600382018054600181600116156101000203166002900480601f0160208091040260200160405190810160405280929190818152602001828054600181600116156101000203166002900480156117ff5780601f106117d4576101008083540402835291602001916117ff565b820191906000526020600020905b8154815290600101906020018083116117e257829003601f168201915b50505050508152602001600482018054600181600116156101000203166002900480601f0160208091040260200160405190810160405280929190818152602001828054600181600116156101000203166002900480156118a15780601f10611876576101008083540402835291602001916118a1565b820191906000526020600020905b81548152906001019060200180831161188457829003601f168201915b50505050508152602001600582018054600181600116156101000203166002900480601f0160208091040260200160405190810160405280929190818152602001828054600181600116156101000203166002900480156119435780601f1061191857610100808354040283529160200191611943565b820191906000526020600020905b81548152906001019060200180831161192657829003601f168201915b50505050508152602001600682018054600181600116156101000203166002900480601f0160208091040260200160405190810160405280929190818152602001828054600181600116156101000203166002900480156119e55780601f106119ba576101008083540402835291602001916119e5565b820191906000526020600020905b8154815290600101906020018083116119c857829003601f168201915b50505050508152602001600782015481525050905080600001518160200151826060015183608001518460e001518560a001518660c001518595506040805190810160405280600881526020017f2a2a2a2a2a2a2a2a00000000000000000000000000000000000000000000000081525094939291908494508393508191508090509850985098509850985098509850985050919395975091939597565b60006060806060806000606080611a98611f2f565b6000808b8152602001908152602001600020610100604051908101604052908160008201548152602001600182018054600181600116156101000203166002900480601f016020809104026020016040519081016040528092919081815260200182805460018160011615610100020316600290048015611b5a5780601f10611b2f57610100808354040283529160200191611b5a565b820191906000526020600020905b815481529060010190602001808311611b3d57829003601f168201915b50505050508152602001600282018054600181600116156101000203166002900480601f016020809104026020016040519081016040528092919081815260200182805460018160011615610100020316600290048015611bfc5780601f10611bd157610100808354040283529160200191611bfc565b820191906000526020600020905b815481529060010190602001808311611bdf57829003601f168201915b50505050508152602001600382018054600181600116156101000203166002900480601f016020809104026020016040519081016040528092919081815260200182805460018160011615610100020316600290048015611c9e5780601f10611c7357610100808354040283529160200191611c9e565b820191906000526020600020905b815481529060010190602001808311611c8157829003601f168201915b50505050508152602001600482018054600181600116156101000203166002900480601f016020809104026020016040519081016040528092919081815260200182805460018160011615610100020316600290048015611d405780601f10611d1557610100808354040283529160200191611d40565b820191906000526020600020905b815481529060010190602001808311611d2357829003601f168201915b50505050508152602001600582018054600181600116156101000203166002900480601f016020809104026020016040519081016040528092919081815260200182805460018160011615610100020316600290048015611de25780601f10611db757610100808354040283529160200191611de2565b820191906000526020600020905b815481529060010190602001808311611dc557829003601f168201915b50505050508152602001600682018054600181600116156101000203166002900480601f016020809104026020016040519081016040528092919081815260200182805460018160011615610100020316600290048015611e845780601f10611e5957610100808354040283529160200191611e84565b820191906000526020600020905b815481529060010190602001808311611e6757829003601f168201915b50505050508152602001600782015481525050905080600001518160200151826060015183608001518460e001518560a001518660c001518595506040805190810160405280600881526020017f2a2a2a2a2a2a2a2a00000000000000000000000000000000000000000000000081525094939291908494508393508191508090509850985098509850985098509850985050919395975091939597565b6000600160025403905090565b6101006040519081016040528060008152602001606081526020016060815260200160608152602001606081526020016060815260200160608152602001600081525090565b828054600181600116156101000203166002900490600052602060002090601f016020900481019282601f10611fb657805160ff1916838001178555611fe4565b82800160010185558215611fe4579182015b82811115611fe3578251825591602001919060010190611fc8565b5b509050611ff19190611ff5565b5090565b61201791905b80821115612013576000816000905550600101611ffb565b5090565b9056fea165627a7a72305820b13ea7d59786ec294f3a067c6ce624e83dc16da8dac66356145487e5e51d41d60029",
  "source": "// SPDX-License-Identifier: MIT\r\npragma solidity ^0.5.0;\r\n\r\n\r\ncontract User {\r\n    struct UserData {\r\n        uint userId;\r\n        string username;\r\n        string password;\r\n        string name;\r\n        string citizenID;\r\n        string birthDay;\r\n        string email;\r\n        uint role;\r\n    }\r\n\r\n    mapping(uint => UserData) private usersByUserId;\r\n    mapping(string => UserData) private usersByUsername;\r\n    uint private nextUserId = 1;\r\n\r\n     function registerUser(string memory _username, string memory _password, string memory _name, string memory _citizenID, string memory _birthDay, string memory _email, uint _role) public {\r\n        require(bytes(usersByUsername[_username].username).length == 0, \"Username already exists\");\r\n\r\n       \r\n        UserData memory newUser = UserData(nextUserId, _username, _password, _name, _citizenID,_birthDay,_email, _role);\r\n        usersByUserId[nextUserId] = newUser;\r\n        usersByUsername[_username] = newUser;\r\n        nextUserId++;\r\n    }\r\n\r\n    function login(string memory _username, string memory _password) public view returns (bool) {\r\n        UserData memory user = usersByUsername[_username];\r\n        if (bytes(user.username).length == 0) {\r\n            return false; // User not found\r\n        }\r\n        \r\n        return hashPassword(_password) == hashPassword(user.password);\r\n    }\r\n\r\n    function getUserByUsername(string memory _username) public view returns (uint, string memory, string memory, string memory, string memory, uint,string memory,string memory) {\r\n        UserData memory user = usersByUsername[_username];\r\n        return (user.userId, user.username, \"********\", user.name, user.citizenID, user.role, user.birthDay, user.email); // Tr v mt khu di dng du sao\r\n    }\r\n\r\n  function getUserCount() public view returns (uint) {\r\n    return nextUserId - 1; // S lng ngi dng l nextUserId tr i 1 (do nextUserId bt u t 1)\r\n}\r\n\r\nfunction getUser(uint _userId) public view returns (uint, string memory, string memory, string memory, string memory, uint,string memory,string memory) {\r\n    UserData memory user = usersByUserId[_userId];\r\n    return (user.userId, user.username, \"********\", user.name, user.citizenID, user.role, user.birthDay, user.email); // Tr v mt khu di dng du sao\r\n}\r\n\r\n\r\n      // M ha mt khu\r\n    function hashPassword(string memory _password) public pure returns (bytes32) {\r\n        return keccak256(abi.encodePacked(_password));\r\n    }\r\n}\r\n",
  "sourcePath": "D:/BIN/blockchain/marketplace-part-2/src/contracts/User.sol",
  "compiler": {
    "name": "solc",
    "version": "0.5.0+commit.1d4f565a.Emscripten.clang"
  },
  "schemaVersion": "3.0.2",
  "updatedAt": "2024-06-01T05:39:43.022Z",
  "devdoc": {
    "methods": {}
  },
  "userdoc": {
    "methods": {}
  }
}